{
    "_format": "hh-sol-artifact-1",
    "contractName": "WarrantyCard",
    "sourceName": "contracts/WarrantyCard.sol",
    "abi": [
        {
            "inputs": [],
            "stateMutability": "nonpayable",
            "type": "constructor"
        },
        {
            "anonymous": false,
            "inputs": [
                {
                    "indexed": true,
                    "internalType": "address",
                    "name": "owner",
                    "type": "address"
                },
                {
                    "indexed": true,
                    "internalType": "address",
                    "name": "approved",
                    "type": "address"
                },
                {
                    "indexed": true,
                    "internalType": "uint256",
                    "name": "tokenId",
                    "type": "uint256"
                }
            ],
            "name": "Approval",
            "type": "event"
        },
        {
            "anonymous": false,
            "inputs": [
                {
                    "indexed": true,
                    "internalType": "address",
                    "name": "owner",
                    "type": "address"
                },
                {
                    "indexed": true,
                    "internalType": "address",
                    "name": "operator",
                    "type": "address"
                },
                {
                    "indexed": false,
                    "internalType": "bool",
                    "name": "approved",
                    "type": "bool"
                }
            ],
            "name": "ApprovalForAll",
            "type": "event"
        },
        {
            "anonymous": false,
            "inputs": [
                {
                    "indexed": true,
                    "internalType": "address",
                    "name": "previousOwner",
                    "type": "address"
                },
                {
                    "indexed": true,
                    "internalType": "address",
                    "name": "newOwner",
                    "type": "address"
                }
            ],
            "name": "OwnershipTransferred",
            "type": "event"
        },
        {
            "anonymous": false,
            "inputs": [
                {
                    "indexed": true,
                    "internalType": "address",
                    "name": "from",
                    "type": "address"
                },
                {
                    "indexed": true,
                    "internalType": "address",
                    "name": "to",
                    "type": "address"
                },
                {
                    "indexed": true,
                    "internalType": "uint256",
                    "name": "tokenId",
                    "type": "uint256"
                }
            ],
            "name": "Transfer",
            "type": "event"
        },
        {
            "inputs": [
                {
                    "internalType": "address",
                    "name": "to",
                    "type": "address"
                },
                {
                    "internalType": "uint256",
                    "name": "tokenId",
                    "type": "uint256"
                }
            ],
            "name": "approve",
            "outputs": [],
            "stateMutability": "nonpayable",
            "type": "function"
        },
        {
            "inputs": [
                {
                    "internalType": "address",
                    "name": "owner",
                    "type": "address"
                }
            ],
            "name": "balanceOf",
            "outputs": [
                {
                    "internalType": "uint256",
                    "name": "",
                    "type": "uint256"
                }
            ],
            "stateMutability": "view",
            "type": "function"
        },
        {
            "inputs": [
                {
                    "internalType": "uint256",
                    "name": "tokenId",
                    "type": "uint256"
                }
            ],
            "name": "checkWarrantyPeriod",
            "outputs": [
                {
                    "internalType": "bool",
                    "name": "",
                    "type": "bool"
                }
            ],
            "stateMutability": "view",
            "type": "function"
        },
        {
            "inputs": [
                {
                    "internalType": "address",
                    "name": "to",
                    "type": "address"
                },
                {
                    "internalType": "uint256",
                    "name": "duration",
                    "type": "uint256"
                }
            ],
            "name": "createWarrantyCard",
            "outputs": [
                {
                    "internalType": "uint256",
                    "name": "",
                    "type": "uint256"
                }
            ],
            "stateMutability": "nonpayable",
            "type": "function"
        },
        {
            "inputs": [
                {
                    "internalType": "uint256",
                    "name": "tokenId",
                    "type": "uint256"
                }
            ],
            "name": "getApproved",
            "outputs": [
                {
                    "internalType": "address",
                    "name": "",
                    "type": "address"
                }
            ],
            "stateMutability": "view",
            "type": "function"
        },
        {
            "inputs": [
                {
                    "internalType": "uint256",
                    "name": "tokenId",
                    "type": "uint256"
                }
            ],
            "name": "getEndOfWarrantyPeriod",
            "outputs": [
                {
                    "internalType": "uint256",
                    "name": "",
                    "type": "uint256"
                }
            ],
            "stateMutability": "view",
            "type": "function"
        },
        {
            "inputs": [
                {
                    "internalType": "address",
                    "name": "owner",
                    "type": "address"
                },
                {
                    "internalType": "address",
                    "name": "operator",
                    "type": "address"
                }
            ],
            "name": "isApprovedForAll",
            "outputs": [
                {
                    "internalType": "bool",
                    "name": "",
                    "type": "bool"
                }
            ],
            "stateMutability": "view",
            "type": "function"
        },
        {
            "inputs": [],
            "name": "name",
            "outputs": [
                {
                    "internalType": "string",
                    "name": "",
                    "type": "string"
                }
            ],
            "stateMutability": "view",
            "type": "function"
        },
        {
            "inputs": [],
            "name": "owner",
            "outputs": [
                {
                    "internalType": "address",
                    "name": "",
                    "type": "address"
                }
            ],
            "stateMutability": "view",
            "type": "function"
        },
        {
            "inputs": [
                {
                    "internalType": "uint256",
                    "name": "tokenId",
                    "type": "uint256"
                }
            ],
            "name": "ownerOf",
            "outputs": [
                {
                    "internalType": "address",
                    "name": "",
                    "type": "address"
                }
            ],
            "stateMutability": "view",
            "type": "function"
        },
        {
            "inputs": [],
            "name": "renounceOwnership",
            "outputs": [],
            "stateMutability": "nonpayable",
            "type": "function"
        },
        {
            "inputs": [
                {
                    "internalType": "address",
                    "name": "from",
                    "type": "address"
                },
                {
                    "internalType": "address",
                    "name": "to",
                    "type": "address"
                },
                {
                    "internalType": "uint256",
                    "name": "tokenId",
                    "type": "uint256"
                }
            ],
            "name": "safeTransferFrom",
            "outputs": [],
            "stateMutability": "nonpayable",
            "type": "function"
        },
        {
            "inputs": [
                {
                    "internalType": "address",
                    "name": "from",
                    "type": "address"
                },
                {
                    "internalType": "address",
                    "name": "to",
                    "type": "address"
                },
                {
                    "internalType": "uint256",
                    "name": "tokenId",
                    "type": "uint256"
                },
                {
                    "internalType": "bytes",
                    "name": "data",
                    "type": "bytes"
                }
            ],
            "name": "safeTransferFrom",
            "outputs": [],
            "stateMutability": "nonpayable",
            "type": "function"
        },
        {
            "inputs": [
                {
                    "internalType": "address",
                    "name": "operator",
                    "type": "address"
                },
                {
                    "internalType": "bool",
                    "name": "approved",
                    "type": "bool"
                }
            ],
            "name": "setApprovalForAll",
            "outputs": [],
            "stateMutability": "nonpayable",
            "type": "function"
        },
        {
            "inputs": [
                {
                    "internalType": "bytes4",
                    "name": "interfaceId",
                    "type": "bytes4"
                }
            ],
            "name": "supportsInterface",
            "outputs": [
                {
                    "internalType": "bool",
                    "name": "",
                    "type": "bool"
                }
            ],
            "stateMutability": "view",
            "type": "function"
        },
        {
            "inputs": [],
            "name": "symbol",
            "outputs": [
                {
                    "internalType": "string",
                    "name": "",
                    "type": "string"
                }
            ],
            "stateMutability": "view",
            "type": "function"
        },
        {
            "inputs": [
                {
                    "internalType": "uint256",
                    "name": "tokenId",
                    "type": "uint256"
                }
            ],
            "name": "tokenURI",
            "outputs": [
                {
                    "internalType": "string",
                    "name": "",
                    "type": "string"
                }
            ],
            "stateMutability": "view",
            "type": "function"
        },
        {
            "inputs": [
                {
                    "internalType": "address",
                    "name": "from",
                    "type": "address"
                },
                {
                    "internalType": "address",
                    "name": "to",
                    "type": "address"
                },
                {
                    "internalType": "uint256",
                    "name": "tokenId",
                    "type": "uint256"
                }
            ],
            "name": "transferFrom",
            "outputs": [],
            "stateMutability": "nonpayable",
            "type": "function"
        },
        {
            "inputs": [
                {
                    "internalType": "address",
                    "name": "newOwner",
                    "type": "address"
                }
            ],
            "name": "transferOwnership",
            "outputs": [],
            "stateMutability": "nonpayable",
            "type": "function"
        }
    ],
    "bytecode": "0x60806040523480156200001157600080fd5b506040518060400160405280600d81526020017f57617272616e74792043617264000000000000000000000000000000000000008152506040518060400160405280600381526020017f574152000000000000000000000000000000000000000000000000000000000081525081600090816200008f919062000412565b508060019081620000a1919062000412565b505050620000c4620000b8620000ca60201b60201c565b620000d260201b60201c565b620004f9565b600033905090565b6000600660009054906101000a900473ffffffffffffffffffffffffffffffffffffffff16905081600660006101000a81548173ffffffffffffffffffffffffffffffffffffffff021916908373ffffffffffffffffffffffffffffffffffffffff1602179055508173ffffffffffffffffffffffffffffffffffffffff168173ffffffffffffffffffffffffffffffffffffffff167f8be0079c531659141344cd1fd0a4f28419497f9722a3daafe3b4186f6b6457e060405160405180910390a35050565b600081519050919050565b7f4e487b7100000000000000000000000000000000000000000000000000000000600052604160045260246000fd5b7f4e487b7100000000000000000000000000000000000000000000000000000000600052602260045260246000fd5b600060028204905060018216806200021a57607f821691505b60208210810362000230576200022f620001d2565b5b50919050565b60008190508160005260206000209050919050565b60006020601f8301049050919050565b600082821b905092915050565b6000600883026200029a7fffffffffffffffffffffffffffffffffffffffffffffffffffffffffffffffff826200025b565b620002a686836200025b565b95508019841693508086168417925050509392505050565b6000819050919050565b6000819050919050565b6000620002f3620002ed620002e784620002be565b620002c8565b620002be565b9050919050565b6000819050919050565b6200030f83620002d2565b620003276200031e82620002fa565b84845462000268565b825550505050565b600090565b6200033e6200032f565b6200034b81848462000304565b505050565b5b8181101562000373576200036760008262000334565b60018101905062000351565b5050565b601f821115620003c2576200038c8162000236565b62000397846200024b565b81016020851015620003a7578190505b620003bf620003b6856200024b565b83018262000350565b50505b505050565b600082821c905092915050565b6000620003e760001984600802620003c7565b1980831691505092915050565b6000620004028383620003d4565b9150826002028217905092915050565b6200041d8262000198565b67ffffffffffffffff811115620004395762000438620001a3565b5b62000445825462000201565b6200045282828562000377565b600060209050601f8311600181146200048a576000841562000475578287015190505b620004818582620003f4565b865550620004f1565b601f1984166200049a8662000236565b60005b82811015620004c4578489015182556001820191506020850194506020810190506200049d565b86831015620004e45784890151620004e0601f891682620003d4565b8355505b6001600288020188555050505b505050505050565b612c8e80620005096000396000f3fe608060405234801561001057600080fd5b50600436106101215760003560e01c80636352211e116100ad578063a22cb46511610071578063a22cb4651461032e578063b88d4fde1461034a578063c87b56dd14610366578063e985e9c514610396578063f2fde38b146103c657610121565b80636352211e1461028857806370a08231146102b8578063715018a6146102e85780638da5cb5b146102f257806395d89b411461031057610121565b80631d40747c116100f45780631d40747c146101c057806323b872dd146101f057806340a584341461020c57806342842e0e1461023c57806342e637481461025857610121565b806301ffc9a71461012657806306fdde0314610156578063081812fc14610174578063095ea7b3146101a4575b600080fd5b610140600480360381019061013b9190611d97565b6103e2565b60405161014d9190611ddf565b60405180910390f35b61015e6104c4565b60405161016b9190611e8a565b60405180910390f35b61018e60048036038101906101899190611ee2565b610556565b60405161019b9190611f50565b60405180910390f35b6101be60048036038101906101b99190611f97565b61059c565b005b6101da60048036038101906101d59190611ee2565b6106b3565b6040516101e79190611ddf565b60405180910390f35b61020a60048036038101906102059190611fd7565b6107c7565b005b61022660048036038101906102219190611ee2565b610827565b6040516102339190612039565b60405180910390f35b61025660048036038101906102519190611fd7565b610929565b005b610272600480360381019061026d9190611f97565b610949565b60405161027f9190612039565b60405180910390f35b6102a2600480360381019061029d9190611ee2565b6109f1565b6040516102af9190611f50565b60405180910390f35b6102d260048036038101906102cd9190612054565b610a77565b6040516102df9190612039565b60405180910390f35b6102f0610b2e565b005b6102fa610b42565b6040516103079190611f50565b60405180910390f35b610318610b6c565b6040516103259190611e8a565b60405180910390f35b610348600480360381019061034391906120ad565b610bfe565b005b610364600480360381019061035f9190612222565b610c14565b005b610380600480360381019061037b9190611ee2565b610c76565b60405161038d9190611e8a565b60405180910390f35b6103b060048036038101906103ab91906122a5565b610cde565b6040516103bd9190611ddf565b60405180910390f35b6103e060048036038101906103db9190612054565b610d72565b005b60007f80ac58cd000000000000000000000000000000000000000000000000000000007bffffffffffffffffffffffffffffffffffffffffffffffffffffffff1916827bffffffffffffffffffffffffffffffffffffffffffffffffffffffff191614806104ad57507f5b5e139f000000000000000000000000000000000000000000000000000000007bffffffffffffffffffffffffffffffffffffffffffffffffffffffff1916827bffffffffffffffffffffffffffffffffffffffffffffffffffffffff1916145b806104bd57506104bc82610df5565b5b9050919050565b6060600080546104d390612314565b80601f01602080910402602001604051908101604052809291908181526020018280546104ff90612314565b801561054c5780601f106105215761010080835404028352916020019161054c565b820191906000526020600020905b81548152906001019060200180831161052f57829003601f168201915b5050505050905090565b600061056182610e5f565b6004600083815260200190815260200160002060009054906101000a900473ffffffffffffffffffffffffffffffffffffffff169050919050565b60006105a7826109f1565b90508073ffffffffffffffffffffffffffffffffffffffff168373ffffffffffffffffffffffffffffffffffffffff1603610617576040517f08c379a000000000000000000000000000000000000000000000000000000000815260040161060e906123b7565b60405180910390fd5b8073ffffffffffffffffffffffffffffffffffffffff16610636610eaa565b73ffffffffffffffffffffffffffffffffffffffff16148061066557506106648161065f610eaa565b610cde565b5b6106a4576040517f08c379a000000000000000000000000000000000000000000000000000000000815260040161069b90612449565b60405180910390fd5b6106ae8383610eb2565b505050565b60006008600083815260200190815260200160002060000160009054906101000a900473ffffffffffffffffffffffffffffffffffffffff1673ffffffffffffffffffffffffffffffffffffffff163373ffffffffffffffffffffffffffffffffffffffff1614806107585750610729826109f1565b73ffffffffffffffffffffffffffffffffffffffff163373ffffffffffffffffffffffffffffffffffffffff16145b610797576040517f08c379a000000000000000000000000000000000000000000000000000000000815260040161078e906124db565b60405180910390fd5b426008600084815260200190815260200160002060010154106107bd57600190506107c2565b600090505b919050565b6107d86107d2610eaa565b82610f6b565b610817576040517f08c379a000000000000000000000000000000000000000000000000000000000815260040161080e9061256d565b60405180910390fd5b610822838383611000565b505050565b60006008600083815260200190815260200160002060000160009054906101000a900473ffffffffffffffffffffffffffffffffffffffff1673ffffffffffffffffffffffffffffffffffffffff163373ffffffffffffffffffffffffffffffffffffffff1614806108cc575061089d826109f1565b73ffffffffffffffffffffffffffffffffffffffff163373ffffffffffffffffffffffffffffffffffffffff16145b61090b576040517f08c379a0000000000000000000000000000000000000000000000000000000008152600401610902906124db565b60405180910390fd5b60086000838152602001908152602001600020600101549050919050565b61094483838360405180602001604052806000815250610c14565b505050565b60008061095660076112f9565b90506109626007611307565b61096c848261131d565b336008600083815260200190815260200160002060000160006101000a81548173ffffffffffffffffffffffffffffffffffffffff021916908373ffffffffffffffffffffffffffffffffffffffff16021790555082426109cd91906125bc565b60086000838152602001908152602001600020600101819055508091505092915050565b6000806109fd8361133b565b9050600073ffffffffffffffffffffffffffffffffffffffff168173ffffffffffffffffffffffffffffffffffffffff1603610a6e576040517f08c379a0000000000000000000000000000000000000000000000000000000008152600401610a659061263c565b60405180910390fd5b80915050919050565b60008073ffffffffffffffffffffffffffffffffffffffff168273ffffffffffffffffffffffffffffffffffffffff1603610ae7576040517f08c379a0000000000000000000000000000000000000000000000000000000008152600401610ade906126ce565b60405180910390fd5b600360008373ffffffffffffffffffffffffffffffffffffffff1673ffffffffffffffffffffffffffffffffffffffff168152602001908152602001600020549050919050565b610b36611378565b610b4060006113f6565b565b6000600660009054906101000a900473ffffffffffffffffffffffffffffffffffffffff16905090565b606060018054610b7b90612314565b80601f0160208091040260200160405190810160405280929190818152602001828054610ba790612314565b8015610bf45780601f10610bc957610100808354040283529160200191610bf4565b820191906000526020600020905b815481529060010190602001808311610bd757829003601f168201915b5050505050905090565b610c10610c09610eaa565b83836114bc565b5050565b610c25610c1f610eaa565b83610f6b565b610c64576040517f08c379a0000000000000000000000000000000000000000000000000000000008152600401610c5b9061256d565b60405180910390fd5b610c7084848484611628565b50505050565b6060610c8182610e5f565b6000610c8b611684565b90506000815111610cab5760405180602001604052806000815250610cd6565b80610cb58461169b565b604051602001610cc692919061272a565b6040516020818303038152906040525b915050919050565b6000600560008473ffffffffffffffffffffffffffffffffffffffff1673ffffffffffffffffffffffffffffffffffffffff16815260200190815260200160002060008373ffffffffffffffffffffffffffffffffffffffff1673ffffffffffffffffffffffffffffffffffffffff16815260200190815260200160002060009054906101000a900460ff16905092915050565b610d7a611378565b600073ffffffffffffffffffffffffffffffffffffffff168173ffffffffffffffffffffffffffffffffffffffff1603610de9576040517f08c379a0000000000000000000000000000000000000000000000000000000008152600401610de0906127c0565b60405180910390fd5b610df2816113f6565b50565b60007f01ffc9a7000000000000000000000000000000000000000000000000000000007bffffffffffffffffffffffffffffffffffffffffffffffffffffffff1916827bffffffffffffffffffffffffffffffffffffffffffffffffffffffff1916149050919050565b610e6881611769565b610ea7576040517f08c379a0000000000000000000000000000000000000000000000000000000008152600401610e9e9061263c565b60405180910390fd5b50565b600033905090565b816004600083815260200190815260200160002060006101000a81548173ffffffffffffffffffffffffffffffffffffffff021916908373ffffffffffffffffffffffffffffffffffffffff160217905550808273ffffffffffffffffffffffffffffffffffffffff16610f25836109f1565b73ffffffffffffffffffffffffffffffffffffffff167f8c5be1e5ebec7d5bd14f71427d1e84f3dd0314c0f7b2291e5b200ac8c7c3b92560405160405180910390a45050565b600080610f77836109f1565b90508073ffffffffffffffffffffffffffffffffffffffff168473ffffffffffffffffffffffffffffffffffffffff161480610fb95750610fb88185610cde565b5b80610ff757508373ffffffffffffffffffffffffffffffffffffffff16610fdf84610556565b73ffffffffffffffffffffffffffffffffffffffff16145b91505092915050565b8273ffffffffffffffffffffffffffffffffffffffff16611020826109f1565b73ffffffffffffffffffffffffffffffffffffffff1614611076576040517f08c379a000000000000000000000000000000000000000000000000000000000815260040161106d90612852565b60405180910390fd5b600073ffffffffffffffffffffffffffffffffffffffff168273ffffffffffffffffffffffffffffffffffffffff16036110e5576040517f08c379a00000000000000000000000000000000000000000000000000000000081526004016110dc906128e4565b60405180910390fd5b6110f283838360016117aa565b8273ffffffffffffffffffffffffffffffffffffffff16611112826109f1565b73ffffffffffffffffffffffffffffffffffffffff1614611168576040517f08c379a000000000000000000000000000000000000000000000000000000000815260040161115f90612852565b60405180910390fd5b6004600082815260200190815260200160002060006101000a81549073ffffffffffffffffffffffffffffffffffffffff02191690556001600360008573ffffffffffffffffffffffffffffffffffffffff1673ffffffffffffffffffffffffffffffffffffffff168152602001908152602001600020600082825403925050819055506001600360008473ffffffffffffffffffffffffffffffffffffffff1673ffffffffffffffffffffffffffffffffffffffff16815260200190815260200160002060008282540192505081905550816002600083815260200190815260200160002060006101000a81548173ffffffffffffffffffffffffffffffffffffffff021916908373ffffffffffffffffffffffffffffffffffffffff160217905550808273ffffffffffffffffffffffffffffffffffffffff168473ffffffffffffffffffffffffffffffffffffffff167fddf252ad1be2c89b69c2b068fc378daa952ba7f163c4a11628f55a4df523b3ef60405160405180910390a46112f483838360016117b0565b505050565b600081600001549050919050565b6001816000016000828254019250508190555050565b6113378282604051806020016040528060008152506117b6565b5050565b60006002600083815260200190815260200160002060009054906101000a900473ffffffffffffffffffffffffffffffffffffffff169050919050565b611380610eaa565b73ffffffffffffffffffffffffffffffffffffffff1661139e610b42565b73ffffffffffffffffffffffffffffffffffffffff16146113f4576040517f08c379a00000000000000000000000000000000000000000000000000000000081526004016113eb90612950565b60405180910390fd5b565b6000600660009054906101000a900473ffffffffffffffffffffffffffffffffffffffff16905081600660006101000a81548173ffffffffffffffffffffffffffffffffffffffff021916908373ffffffffffffffffffffffffffffffffffffffff1602179055508173ffffffffffffffffffffffffffffffffffffffff168173ffffffffffffffffffffffffffffffffffffffff167f8be0079c531659141344cd1fd0a4f28419497f9722a3daafe3b4186f6b6457e060405160405180910390a35050565b8173ffffffffffffffffffffffffffffffffffffffff168373ffffffffffffffffffffffffffffffffffffffff160361152a576040517f08c379a0000000000000000000000000000000000000000000000000000000008152600401611521906129bc565b60405180910390fd5b80600560008573ffffffffffffffffffffffffffffffffffffffff1673ffffffffffffffffffffffffffffffffffffffff16815260200190815260200160002060008473ffffffffffffffffffffffffffffffffffffffff1673ffffffffffffffffffffffffffffffffffffffff16815260200190815260200160002060006101000a81548160ff0219169083151502179055508173ffffffffffffffffffffffffffffffffffffffff168373ffffffffffffffffffffffffffffffffffffffff167f17307eab39ab6107e8899845ad3d59bd9653f200f220920489ca2b5937696c318360405161161b9190611ddf565b60405180910390a3505050565b611633848484611000565b61163f84848484611811565b61167e576040517f08c379a000000000000000000000000000000000000000000000000000000000815260040161167590612a4e565b60405180910390fd5b50505050565b606060405180602001604052806000815250905090565b6060600060016116aa84611998565b01905060008167ffffffffffffffff8111156116c9576116c86120f7565b5b6040519080825280601f01601f1916602001820160405280156116fb5781602001600182028036833780820191505090505b509050600082602001820190505b60011561175e578080600190039150507f3031323334353637383961626364656600000000000000000000000000000000600a86061a8153600a858161175257611751612a6e565b5b04945060008503611709575b819350505050919050565b60008073ffffffffffffffffffffffffffffffffffffffff1661178b8361133b565b73ffffffffffffffffffffffffffffffffffffffff1614159050919050565b50505050565b50505050565b6117c08383611aeb565b6117cd6000848484611811565b61180c576040517f08c379a000000000000000000000000000000000000000000000000000000000815260040161180390612a4e565b60405180910390fd5b505050565b60006118328473ffffffffffffffffffffffffffffffffffffffff16611d08565b1561198b578373ffffffffffffffffffffffffffffffffffffffff1663150b7a0261185b610eaa565b8786866040518563ffffffff1660e01b815260040161187d9493929190612af2565b6020604051808303816000875af19250505080156118b957506040513d601f19601f820116820180604052508101906118b69190612b53565b60015b61193b573d80600081146118e9576040519150601f19603f3d011682016040523d82523d6000602084013e6118ee565b606091505b506000815103611933576040517f08c379a000000000000000000000000000000000000000000000000000000000815260040161192a90612a4e565b60405180910390fd5b805181602001fd5b63150b7a0260e01b7bffffffffffffffffffffffffffffffffffffffffffffffffffffffff1916817bffffffffffffffffffffffffffffffffffffffffffffffffffffffff191614915050611990565b600190505b949350505050565b600080600090507a184f03e93ff9f4daa797ed6e38ed64bf6a1f01000000000000000083106119f6577a184f03e93ff9f4daa797ed6e38ed64bf6a1f01000000000000000083816119ec576119eb612a6e565b5b0492506040810190505b6d04ee2d6d415b85acef81000000008310611a33576d04ee2d6d415b85acef81000000008381611a2957611a28612a6e565b5b0492506020810190505b662386f26fc100008310611a6257662386f26fc100008381611a5857611a57612a6e565b5b0492506010810190505b6305f5e1008310611a8b576305f5e1008381611a8157611a80612a6e565b5b0492506008810190505b6127108310611ab0576127108381611aa657611aa5612a6e565b5b0492506004810190505b60648310611ad35760648381611ac957611ac8612a6e565b5b0492506002810190505b600a8310611ae2576001810190505b80915050919050565b600073ffffffffffffffffffffffffffffffffffffffff168273ffffffffffffffffffffffffffffffffffffffff1603611b5a576040517f08c379a0000000000000000000000000000000000000000000000000000000008152600401611b5190612bcc565b60405180910390fd5b611b6381611769565b15611ba3576040517f08c379a0000000000000000000000000000000000000000000000000000000008152600401611b9a90612c38565b60405180910390fd5b611bb16000838360016117aa565b611bba81611769565b15611bfa576040517f08c379a0000000000000000000000000000000000000000000000000000000008152600401611bf190612c38565b60405180910390fd5b6001600360008473ffffffffffffffffffffffffffffffffffffffff1673ffffffffffffffffffffffffffffffffffffffff16815260200190815260200160002060008282540192505081905550816002600083815260200190815260200160002060006101000a81548173ffffffffffffffffffffffffffffffffffffffff021916908373ffffffffffffffffffffffffffffffffffffffff160217905550808273ffffffffffffffffffffffffffffffffffffffff16600073ffffffffffffffffffffffffffffffffffffffff167fddf252ad1be2c89b69c2b068fc378daa952ba7f163c4a11628f55a4df523b3ef60405160405180910390a4611d046000838360016117b0565b5050565b6000808273ffffffffffffffffffffffffffffffffffffffff163b119050919050565b6000604051905090565b600080fd5b600080fd5b60007fffffffff0000000000000000000000000000000000000000000000000000000082169050919050565b611d7481611d3f565b8114611d7f57600080fd5b50565b600081359050611d9181611d6b565b92915050565b600060208284031215611dad57611dac611d35565b5b6000611dbb84828501611d82565b91505092915050565b60008115159050919050565b611dd981611dc4565b82525050565b6000602082019050611df46000830184611dd0565b92915050565b600081519050919050565b600082825260208201905092915050565b60005b83811015611e34578082015181840152602081019050611e19565b60008484015250505050565b6000601f19601f8301169050919050565b6000611e5c82611dfa565b611e668185611e05565b9350611e76818560208601611e16565b611e7f81611e40565b840191505092915050565b60006020820190508181036000830152611ea48184611e51565b905092915050565b6000819050919050565b611ebf81611eac565b8114611eca57600080fd5b50565b600081359050611edc81611eb6565b92915050565b600060208284031215611ef857611ef7611d35565b5b6000611f0684828501611ecd565b91505092915050565b600073ffffffffffffffffffffffffffffffffffffffff82169050919050565b6000611f3a82611f0f565b9050919050565b611f4a81611f2f565b82525050565b6000602082019050611f656000830184611f41565b92915050565b611f7481611f2f565b8114611f7f57600080fd5b50565b600081359050611f9181611f6b565b92915050565b60008060408385031215611fae57611fad611d35565b5b6000611fbc85828601611f82565b9250506020611fcd85828601611ecd565b9150509250929050565b600080600060608486031215611ff057611fef611d35565b5b6000611ffe86828701611f82565b935050602061200f86828701611f82565b925050604061202086828701611ecd565b9150509250925092565b61203381611eac565b82525050565b600060208201905061204e600083018461202a565b92915050565b60006020828403121561206a57612069611d35565b5b600061207884828501611f82565b91505092915050565b61208a81611dc4565b811461209557600080fd5b50565b6000813590506120a781612081565b92915050565b600080604083850312156120c4576120c3611d35565b5b60006120d285828601611f82565b92505060206120e385828601612098565b9150509250929050565b600080fd5b600080fd5b7f4e487b7100000000000000000000000000000000000000000000000000000000600052604160045260246000fd5b61212f82611e40565b810181811067ffffffffffffffff8211171561214e5761214d6120f7565b5b80604052505050565b6000612161611d2b565b905061216d8282612126565b919050565b600067ffffffffffffffff82111561218d5761218c6120f7565b5b61219682611e40565b9050602081019050919050565b82818337600083830152505050565b60006121c56121c084612172565b612157565b9050828152602081018484840111156121e1576121e06120f2565b5b6121ec8482856121a3565b509392505050565b600082601f830112612209576122086120ed565b5b81356122198482602086016121b2565b91505092915050565b6000806000806080858703121561223c5761223b611d35565b5b600061224a87828801611f82565b945050602061225b87828801611f82565b935050604061226c87828801611ecd565b925050606085013567ffffffffffffffff81111561228d5761228c611d3a565b5b612299878288016121f4565b91505092959194509250565b600080604083850312156122bc576122bb611d35565b5b60006122ca85828601611f82565b92505060206122db85828601611f82565b9150509250929050565b7f4e487b7100000000000000000000000000000000000000000000000000000000600052602260045260246000fd5b6000600282049050600182168061232c57607f821691505b60208210810361233f5761233e6122e5565b5b50919050565b7f4552433732313a20617070726f76616c20746f2063757272656e74206f776e6560008201527f7200000000000000000000000000000000000000000000000000000000000000602082015250565b60006123a1602183611e05565b91506123ac82612345565b604082019050919050565b600060208201905081810360008301526123d081612394565b9050919050565b7f4552433732313a20617070726f76652063616c6c6572206973206e6f7420746f60008201527f6b656e206f776e6572206f7220617070726f76656420666f7220616c6c000000602082015250565b6000612433603d83611e05565b915061243e826123d7565b604082019050919050565b6000602082019050818103600083015261246281612426565b9050919050565b7f4f6e6c79207468652073656c6c657220616e642074686520627579657220636160008201527f6e20636865636b2077617272616e747900000000000000000000000000000000602082015250565b60006124c5603083611e05565b91506124d082612469565b604082019050919050565b600060208201905081810360008301526124f4816124b8565b9050919050565b7f4552433732313a2063616c6c6572206973206e6f7420746f6b656e206f776e6560008201527f72206f7220617070726f76656400000000000000000000000000000000000000602082015250565b6000612557602d83611e05565b9150612562826124fb565b604082019050919050565b600060208201905081810360008301526125868161254a565b9050919050565b7f4e487b7100000000000000000000000000000000000000000000000000000000600052601160045260246000fd5b60006125c782611eac565b91506125d283611eac565b92508282019050808211156125ea576125e961258d565b5b92915050565b7f4552433732313a20696e76616c696420746f6b656e2049440000000000000000600082015250565b6000612626601883611e05565b9150612631826125f0565b602082019050919050565b6000602082019050818103600083015261265581612619565b9050919050565b7f4552433732313a2061646472657373207a65726f206973206e6f74206120766160008201527f6c6964206f776e65720000000000000000000000000000000000000000000000602082015250565b60006126b8602983611e05565b91506126c38261265c565b604082019050919050565b600060208201905081810360008301526126e7816126ab565b9050919050565b600081905092915050565b600061270482611dfa565b61270e81856126ee565b935061271e818560208601611e16565b80840191505092915050565b600061273682856126f9565b915061274282846126f9565b91508190509392505050565b7f4f776e61626c653a206e6577206f776e657220697320746865207a65726f206160008201527f6464726573730000000000000000000000000000000000000000000000000000602082015250565b60006127aa602683611e05565b91506127b58261274e565b604082019050919050565b600060208201905081810360008301526127d98161279d565b9050919050565b7f4552433732313a207472616e736665722066726f6d20696e636f72726563742060008201527f6f776e6572000000000000000000000000000000000000000000000000000000602082015250565b600061283c602583611e05565b9150612847826127e0565b604082019050919050565b6000602082019050818103600083015261286b8161282f565b9050919050565b7f4552433732313a207472616e7366657220746f20746865207a65726f2061646460008201527f7265737300000000000000000000000000000000000000000000000000000000602082015250565b60006128ce602483611e05565b91506128d982612872565b604082019050919050565b600060208201905081810360008301526128fd816128c1565b9050919050565b7f4f776e61626c653a2063616c6c6572206973206e6f7420746865206f776e6572600082015250565b600061293a602083611e05565b915061294582612904565b602082019050919050565b600060208201905081810360008301526129698161292d565b9050919050565b7f4552433732313a20617070726f766520746f2063616c6c657200000000000000600082015250565b60006129a6601983611e05565b91506129b182612970565b602082019050919050565b600060208201905081810360008301526129d581612999565b9050919050565b7f4552433732313a207472616e7366657220746f206e6f6e20455243373231526560008201527f63656976657220696d706c656d656e7465720000000000000000000000000000602082015250565b6000612a38603283611e05565b9150612a43826129dc565b604082019050919050565b60006020820190508181036000830152612a6781612a2b565b9050919050565b7f4e487b7100000000000000000000000000000000000000000000000000000000600052601260045260246000fd5b600081519050919050565b600082825260208201905092915050565b6000612ac482612a9d565b612ace8185612aa8565b9350612ade818560208601611e16565b612ae781611e40565b840191505092915050565b6000608082019050612b076000830187611f41565b612b146020830186611f41565b612b21604083018561202a565b8181036060830152612b338184612ab9565b905095945050505050565b600081519050612b4d81611d6b565b92915050565b600060208284031215612b6957612b68611d35565b5b6000612b7784828501612b3e565b91505092915050565b7f4552433732313a206d696e7420746f20746865207a65726f2061646472657373600082015250565b6000612bb6602083611e05565b9150612bc182612b80565b602082019050919050565b60006020820190508181036000830152612be581612ba9565b9050919050565b7f4552433732313a20746f6b656e20616c7265616479206d696e74656400000000600082015250565b6000612c22601c83611e05565b9150612c2d82612bec565b602082019050919050565b60006020820190508181036000830152612c5181612c15565b905091905056fea26469706673582212203b8c8045274f7cde3cddf3adb127e21d725d8cf2e11a680cfe2423d98c26bd4c64736f6c63430008120033",
    "linkReferences": {},
    "deployedLinkReferences": {}
}